{
  "contractName": "EPOS",
  "abi": [
    {
      "inputs": [
        {
          "internalType": "string",
          "name": "SYMBOL",
          "type": "string"
        },
        {
          "internalType": "string",
          "name": "NAME",
          "type": "string"
        },
        {
          "internalType": "uint8",
          "name": "DECIMALS",
          "type": "uint8"
        }
      ],
      "stateMutability": "nonpayable",
      "type": "constructor"
    },
    {
      "anonymous": false,
      "inputs": [
        {
          "indexed": true,
          "internalType": "address",
          "name": "from",
          "type": "address"
        },
        {
          "indexed": false,
          "internalType": "uint256",
          "name": "value",
          "type": "uint256"
        }
      ],
      "name": "Burn",
      "type": "event"
    },
    {
      "anonymous": false,
      "inputs": [
        {
          "indexed": false,
          "internalType": "address",
          "name": "receiver",
          "type": "address"
        },
        {
          "indexed": false,
          "internalType": "address",
          "name": "refferedBy",
          "type": "address"
        },
        {
          "indexed": false,
          "internalType": "uint256",
          "name": "levelIncome",
          "type": "uint256"
        },
        {
          "indexed": false,
          "internalType": "uint256",
          "name": "incomeReceived",
          "type": "uint256"
        }
      ],
      "name": "Distribution",
      "type": "event"
    },
    {
      "anonymous": false,
      "inputs": [
        {
          "indexed": true,
          "internalType": "address",
          "name": "previousOwner",
          "type": "address"
        },
        {
          "indexed": true,
          "internalType": "address",
          "name": "newOwner",
          "type": "address"
        }
      ],
      "name": "OwnershipTransferred",
      "type": "event"
    },
    {
      "anonymous": false,
      "inputs": [
        {
          "indexed": false,
          "internalType": "address",
          "name": "userAddress",
          "type": "address"
        },
        {
          "indexed": false,
          "internalType": "address",
          "name": "referredBy",
          "type": "address"
        },
        {
          "indexed": false,
          "internalType": "uint256",
          "name": "amountPaid",
          "type": "uint256"
        },
        {
          "indexed": false,
          "internalType": "uint256",
          "name": "joingDate",
          "type": "uint256"
        }
      ],
      "name": "Registeration",
      "type": "event"
    },
    {
      "anonymous": false,
      "inputs": [
        {
          "indexed": true,
          "internalType": "address",
          "name": "from",
          "type": "address"
        },
        {
          "indexed": true,
          "internalType": "address",
          "name": "to",
          "type": "address"
        },
        {
          "indexed": false,
          "internalType": "uint256",
          "name": "value",
          "type": "uint256"
        }
      ],
      "name": "Transfer",
      "type": "event"
    },
    {
      "inputs": [],
      "name": "MaxFee",
      "outputs": [
        {
          "internalType": "uint256",
          "name": "",
          "type": "uint256"
        }
      ],
      "stateMutability": "view",
      "type": "function",
      "constant": true
    },
    {
      "inputs": [],
      "name": "Max_Token",
      "outputs": [
        {
          "internalType": "uint256",
          "name": "",
          "type": "uint256"
        }
      ],
      "stateMutability": "view",
      "type": "function",
      "constant": true
    },
    {
      "inputs": [],
      "name": "_currentId",
      "outputs": [
        {
          "internalType": "uint256",
          "name": "",
          "type": "uint256"
        }
      ],
      "stateMutability": "view",
      "type": "function",
      "constant": true
    },
    {
      "inputs": [
        {
          "internalType": "address",
          "name": "",
          "type": "address"
        },
        {
          "internalType": "address",
          "name": "",
          "type": "address"
        }
      ],
      "name": "allowance",
      "outputs": [
        {
          "internalType": "uint256",
          "name": "",
          "type": "uint256"
        }
      ],
      "stateMutability": "view",
      "type": "function",
      "constant": true
    },
    {
      "inputs": [
        {
          "internalType": "address",
          "name": "",
          "type": "address"
        }
      ],
      "name": "balanceOf",
      "outputs": [
        {
          "internalType": "uint256",
          "name": "",
          "type": "uint256"
        }
      ],
      "stateMutability": "view",
      "type": "function",
      "constant": true
    },
    {
      "inputs": [
        {
          "internalType": "address",
          "name": "",
          "type": "address"
        }
      ],
      "name": "blackListMap",
      "outputs": [
        {
          "internalType": "bool",
          "name": "",
          "type": "bool"
        }
      ],
      "stateMutability": "view",
      "type": "function",
      "constant": true
    },
    {
      "inputs": [],
      "name": "decimals",
      "outputs": [
        {
          "internalType": "uint8",
          "name": "",
          "type": "uint8"
        }
      ],
      "stateMutability": "view",
      "type": "function",
      "constant": true
    },
    {
      "inputs": [],
      "name": "name",
      "outputs": [
        {
          "internalType": "string",
          "name": "",
          "type": "string"
        }
      ],
      "stateMutability": "view",
      "type": "function",
      "constant": true
    },
    {
      "inputs": [],
      "name": "owner",
      "outputs": [
        {
          "internalType": "address",
          "name": "",
          "type": "address"
        }
      ],
      "stateMutability": "view",
      "type": "function",
      "constant": true
    },
    {
      "inputs": [],
      "name": "symbol",
      "outputs": [
        {
          "internalType": "string",
          "name": "",
          "type": "string"
        }
      ],
      "stateMutability": "view",
      "type": "function",
      "constant": true
    },
    {
      "inputs": [],
      "name": "totalSupply",
      "outputs": [
        {
          "internalType": "uint256",
          "name": "",
          "type": "uint256"
        }
      ],
      "stateMutability": "view",
      "type": "function",
      "constant": true
    },
    {
      "inputs": [
        {
          "internalType": "address",
          "name": "newOwner",
          "type": "address"
        }
      ],
      "name": "transferOwnership",
      "outputs": [],
      "stateMutability": "nonpayable",
      "type": "function"
    },
    {
      "inputs": [
        {
          "internalType": "address",
          "name": "",
          "type": "address"
        }
      ],
      "name": "users",
      "outputs": [
        {
          "internalType": "uint256",
          "name": "id",
          "type": "uint256"
        },
        {
          "internalType": "address",
          "name": "userAddress",
          "type": "address"
        },
        {
          "internalType": "address",
          "name": "referredBy",
          "type": "address"
        },
        {
          "internalType": "uint256",
          "name": "amountPaid",
          "type": "uint256"
        },
        {
          "internalType": "uint256",
          "name": "joingDate",
          "type": "uint256"
        },
        {
          "internalType": "bool",
          "name": "activeAllLevel",
          "type": "bool"
        },
        {
          "internalType": "bool",
          "name": "isExist",
          "type": "bool"
        }
      ],
      "stateMutability": "view",
      "type": "function",
      "constant": true
    },
    {
      "inputs": [
        {
          "internalType": "address",
          "name": "_to",
          "type": "address"
        },
        {
          "internalType": "uint256",
          "name": "_value",
          "type": "uint256"
        }
      ],
      "name": "transfer",
      "outputs": [
        {
          "internalType": "bool",
          "name": "",
          "type": "bool"
        }
      ],
      "stateMutability": "nonpayable",
      "type": "function"
    },
    {
      "inputs": [
        {
          "internalType": "address",
          "name": "_from",
          "type": "address"
        },
        {
          "internalType": "address",
          "name": "_to",
          "type": "address"
        },
        {
          "internalType": "uint256",
          "name": "_value",
          "type": "uint256"
        }
      ],
      "name": "transferFrom",
      "outputs": [
        {
          "internalType": "bool",
          "name": "success",
          "type": "bool"
        }
      ],
      "stateMutability": "nonpayable",
      "type": "function"
    },
    {
      "inputs": [
        {
          "internalType": "address",
          "name": "_spender",
          "type": "address"
        },
        {
          "internalType": "uint256",
          "name": "_value",
          "type": "uint256"
        }
      ],
      "name": "approve",
      "outputs": [
        {
          "internalType": "bool",
          "name": "success",
          "type": "bool"
        }
      ],
      "stateMutability": "nonpayable",
      "type": "function"
    },
    {
      "inputs": [
        {
          "internalType": "uint256",
          "name": "_value",
          "type": "uint256"
        }
      ],
      "name": "burn",
      "outputs": [
        {
          "internalType": "bool",
          "name": "success",
          "type": "bool"
        }
      ],
      "stateMutability": "nonpayable",
      "type": "function"
    },
    {
      "inputs": [
        {
          "internalType": "address",
          "name": "_to",
          "type": "address"
        },
        {
          "internalType": "uint256",
          "name": "_value",
          "type": "uint256"
        }
      ],
      "name": "_mint",
      "outputs": [
        {
          "internalType": "bool",
          "name": "success",
          "type": "bool"
        }
      ],
      "stateMutability": "nonpayable",
      "type": "function"
    },
    {
      "inputs": [
        {
          "internalType": "address",
          "name": "_blackListAddress",
          "type": "address"
        }
      ],
      "name": "addBlacklist",
      "outputs": [],
      "stateMutability": "nonpayable",
      "type": "function"
    },
    {
      "inputs": [
        {
          "internalType": "address",
          "name": "_blackListAddress",
          "type": "address"
        }
      ],
      "name": "removeBlacklist",
      "outputs": [],
      "stateMutability": "nonpayable",
      "type": "function"
    },
    {
      "inputs": [
        {
          "internalType": "uint256",
          "name": "_MaxFee",
          "type": "uint256"
        }
      ],
      "name": "updateMaxFee",
      "outputs": [],
      "stateMutability": "nonpayable",
      "type": "function"
    },
    {
      "inputs": [
        {
          "internalType": "address",
          "name": "_blackListAddress",
          "type": "address"
        }
      ],
      "name": "destroyBlackFunds",
      "outputs": [],
      "stateMutability": "nonpayable",
      "type": "function"
    },
    {
      "inputs": [
        {
          "internalType": "address",
          "name": "referredBy",
          "type": "address"
        }
      ],
      "name": "register",
      "outputs": [],
      "stateMutability": "payable",
      "type": "function",
      "payable": true
    }
  ],
  "bytecode": "0x60806040526001600a60006101000a81548160ff0219169083151502179055506001600d55600a60105560646011556040518060800160405280600360ff168152602001600260ff168152602001600160ff168152602001600160ff1681525060129060046200007192919062000372565b50600a6013553480156200008457600080fd5b5060405162003275380380620032758339818101604052810190620000aa91906200050e565b336000806101000a81548173ffffffffffffffffffffffffffffffffffffffff021916908373ffffffffffffffffffffffffffffffffffffffff160217905550826003908051906020019062000102929190620003c9565b5081600290805190602001906200011b929190620003c9565b5080600460006101000a81548160ff021916908360ff160217905550600460009054906101000a900460ff1660ff16600a62000158919062000662565b60068190555060065462030d406200017191906200079f565b6007819055506040518060e00160405280600d5481526020013373ffffffffffffffffffffffffffffffffffffffff168152602001600073ffffffffffffffffffffffffffffffffffffffff1681526020016064815260200142815260200160011515815260200160011515815250600e60003373ffffffffffffffffffffffffffffffffffffffff1673ffffffffffffffffffffffffffffffffffffffff1681526020019081526020016000206000820151816000015560208201518160010160006101000a81548173ffffffffffffffffffffffffffffffffffffffff021916908373ffffffffffffffffffffffffffffffffffffffff16021790555060408201518160020160006101000a81548173ffffffffffffffffffffffffffffffffffffffff021916908373ffffffffffffffffffffffffffffffffffffffff160217905550606082015181600301556080820151816004015560a08201518160050160006101000a81548160ff02191690831515021790555060c08201518160050160016101000a81548160ff02191690831515021790555090505033600f60006101000a81548173ffffffffffffffffffffffffffffffffffffffff021916908373ffffffffffffffffffffffffffffffffffffffff160217905550600d60008154809291906200036490620008b9565b9190505550505050620009e0565b828054828255906000526020600020908101928215620003b6579160200282015b82811115620003b5578251829060ff1690559160200191906001019062000393565b5b509050620003c591906200045a565b5090565b828054620003d7906200084d565b90600052602060002090601f016020900481019282620003fb576000855562000447565b82601f106200041657805160ff191683800117855562000447565b8280016001018555821562000447579182015b828111156200044657825182559160200191906001019062000429565b5b5090506200045691906200045a565b5090565b5b80821115620004755760008160009055506001016200045b565b5090565b6000620004906200048a84620005d1565b620005a8565b905082815260208101848484011115620004af57620004ae62000999565b5b620004bc84828562000817565b509392505050565b600082601f830112620004dc57620004db62000994565b5b8151620004ee84826020860162000479565b91505092915050565b6000815190506200050881620009c6565b92915050565b6000806000606084860312156200052a5762000529620009a3565b5b600084015167ffffffffffffffff8111156200054b576200054a6200099e565b5b6200055986828701620004c4565b935050602084015167ffffffffffffffff8111156200057d576200057c6200099e565b5b6200058b86828701620004c4565b92505060406200059e86828701620004f7565b9150509250925092565b6000620005b4620005c7565b9050620005c2828262000883565b919050565b6000604051905090565b600067ffffffffffffffff821115620005ef57620005ee62000965565b5b620005fa82620009a8565b9050602081019050919050565b6000808291508390505b6001851115620006595780860481111562000631576200063062000907565b5b6001851615620006415780820291505b80810290506200065185620009b9565b945062000611565b94509492505050565b60006200066f8262000800565b91506200067c8362000800565b9250620006ab7fffffffffffffffffffffffffffffffffffffffffffffffffffffffffffffffff8484620006b3565b905092915050565b600082620006c5576001905062000798565b81620006d5576000905062000798565b8160018114620006ee5760028114620006f9576200072f565b600191505062000798565b60ff8411156200070e576200070d62000907565b5b8360020a91508482111562000728576200072762000907565b5b5062000798565b5060208310610133831016604e8410600b8410161715620007695782820a90508381111562000763576200076262000907565b5b62000798565b62000778848484600162000607565b9250905081840481111562000792576200079162000907565b5b81810290505b9392505050565b6000620007ac8262000800565b9150620007b98362000800565b9250817fffffffffffffffffffffffffffffffffffffffffffffffffffffffffffffffff0483118215151615620007f557620007f462000907565b5b828202905092915050565b6000819050919050565b600060ff82169050919050565b60005b83811015620008375780820151818401526020810190506200081a565b8381111562000847576000848401525b50505050565b600060028204905060018216806200086657607f821691505b602082108114156200087d576200087c62000936565b5b50919050565b6200088e82620009a8565b810181811067ffffffffffffffff82111715620008b057620008af62000965565b5b80604052505050565b6000620008c68262000800565b91507fffffffffffffffffffffffffffffffffffffffffffffffffffffffffffffffff821415620008fc57620008fb62000907565b5b600182019050919050565b7f4e487b7100000000000000000000000000000000000000000000000000000000600052601160045260246000fd5b7f4e487b7100000000000000000000000000000000000000000000000000000000600052602260045260246000fd5b7f4e487b7100000000000000000000000000000000000000000000000000000000600052604160045260246000fd5b600080fd5b600080fd5b600080fd5b600080fd5b6000601f19601f8301169050919050565b60008160011c9050919050565b620009d1816200080a565b8114620009dd57600080fd5b50565b61288580620009f06000396000f3fe6080604052600436106101405760003560e01c806370a08231116100b6578063a9059cbb1161006f578063a9059cbb14610491578063dd62ed3e146104ce578063e3ca8ad51461050b578063eb91e65114610536578063f2fde38b1461055f578063f3bdc2281461058857610140565b806370a0823114610367578063845fd946146103a45780638da5cb5b146103cf57806395d89b41146103fa5780639cfe42da14610425578063a87430ba1461044e57610140565b8063313ce56711610108578063313ce5671461025257806342966c681461027d5780634420e486146102ba5780634e6ec247146102d6578063550dddeb14610313578063574fc4931461033c57610140565b806306fdde0314610145578063095ea7b3146101705780630aaaef74146101ad57806318160ddd146101ea57806323b872dd14610215575b600080fd5b34801561015157600080fd5b5061015a6105b1565b60405161016791906121e6565b60405180910390f35b34801561017c57600080fd5b5061019760048036038101906101929190611f71565b61063f565b6040516101a491906121cb565b60405180910390f35b3480156101b957600080fd5b506101d460048036038101906101cf9190611eb1565b6106cc565b6040516101e191906121cb565b60405180910390f35b3480156101f657600080fd5b506101ff6106ec565b60405161020c9190612308565b60405180910390f35b34801561022157600080fd5b5061023c60048036038101906102379190611f1e565b6106f2565b60405161024991906121cb565b60405180910390f35b34801561025e57600080fd5b5061026761085c565b6040516102749190612392565b60405180910390f35b34801561028957600080fd5b506102a4600480360381019061029f9190611fb1565b61086f565b6040516102b191906121cb565b60405180910390f35b6102d460048036038101906102cf9190611eb1565b610a2b565b005b3480156102e257600080fd5b506102fd60048036038101906102f89190611f71565b610f8e565b60405161030a91906121cb565b60405180910390f35b34801561031f57600080fd5b5061033a60048036038101906103359190611fb1565b611212565b005b34801561034857600080fd5b506103516112aa565b60405161035e9190612308565b60405180910390f35b34801561037357600080fd5b5061038e60048036038101906103899190611eb1565b6112b0565b60405161039b9190612308565b60405180910390f35b3480156103b057600080fd5b506103b96112c8565b6040516103c69190612308565b60405180910390f35b3480156103db57600080fd5b506103e46112ce565b6040516103f1919061216b565b60405180910390f35b34801561040657600080fd5b5061040f6112f2565b60405161041c91906121e6565b60405180910390f35b34801561043157600080fd5b5061044c60048036038101906104479190611eb1565b611380565b005b34801561045a57600080fd5b5061047560048036038101906104709190611eb1565b611469565b6040516104889796959493929190612323565b60405180910390f35b34801561049d57600080fd5b506104b860048036038101906104b39190611f71565b611505565b6040516104c591906121cb565b60405180910390f35b3480156104da57600080fd5b506104f560048036038101906104f09190611ede565b61151c565b6040516105029190612308565b60405180910390f35b34801561051757600080fd5b50610520611541565b60405161052d9190612308565b60405180910390f35b34801561054257600080fd5b5061055d60048036038101906105589190611eb1565b611547565b005b34801561056b57600080fd5b5061058660048036038101906105819190611eb1565b611630565b005b34801561059457600080fd5b506105af60048036038101906105aa9190611eb1565b6117b5565b005b600280546105be90612566565b80601f01602080910402602001604051908101604052809291908181526020018280546105ea90612566565b80156106375780601f1061060c57610100808354040283529160200191610637565b820191906000526020600020905b81548152906001019060200180831161061a57829003601f168201915b505050505081565b600081600c60003373ffffffffffffffffffffffffffffffffffffffff1673ffffffffffffffffffffffffffffffffffffffff16815260200190815260200160002060008573ffffffffffffffffffffffffffffffffffffffff1673ffffffffffffffffffffffffffffffffffffffff168152602001908152602001600020819055506001905092915050565b60086020528060005260406000206000915054906101000a900460ff1681565b60055481565b6000600c60008573ffffffffffffffffffffffffffffffffffffffff1673ffffffffffffffffffffffffffffffffffffffff16815260200190815260200160002060003373ffffffffffffffffffffffffffffffffffffffff1673ffffffffffffffffffffffffffffffffffffffff168152602001908152602001600020548211156107b3576040517f08c379a00000000000000000000000000000000000000000000000000000000081526004016107aa90612228565b60405180910390fd5b81600c60008673ffffffffffffffffffffffffffffffffffffffff1673ffffffffffffffffffffffffffffffffffffffff16815260200190815260200160002060003373ffffffffffffffffffffffffffffffffffffffff1673ffffffffffffffffffffffffffffffffffffffff168152602001908152602001600020600082825461083f91906124aa565b92505081905550610851848484611a1e565b600190509392505050565b600460009054906101000a900460ff1681565b60008060009054906101000a900473ffffffffffffffffffffffffffffffffffffffff1673ffffffffffffffffffffffffffffffffffffffff163373ffffffffffffffffffffffffffffffffffffffff1614610900576040517f08c379a00000000000000000000000000000000000000000000000000000000081526004016108f790612268565b60405180910390fd5b81600b60003373ffffffffffffffffffffffffffffffffffffffff1673ffffffffffffffffffffffffffffffffffffffff16815260200190815260200160002054101561094c57600080fd5b81600b60003373ffffffffffffffffffffffffffffffffffffffff1673ffffffffffffffffffffffffffffffffffffffff168152602001908152602001600020600082825461099b91906124aa565b9250508190555081600760008282546109b491906124aa565b9250508190555081600560008282546109cd91906124aa565b925050819055503373ffffffffffffffffffffffffffffffffffffffff167fcc16f5dbb4873280815c1ee09dbd06736cffcc184412cf7a71a0fdb75d397ca583604051610a1a9190612308565b60405180910390a260019050919050565b60011515610a3882611dc2565b151514610a7a576040517f08c379a0000000000000000000000000000000000000000000000000000000008152600401610a7190612208565b60405180910390fd5b600073ffffffffffffffffffffffffffffffffffffffff163373ffffffffffffffffffffffffffffffffffffffff161415610ab457600080fd5b601054341015610af9576040517f08c379a0000000000000000000000000000000000000000000000000000000008152600401610af090612248565b60405180910390fd5b60006011543410610b0957600190505b8173ffffffffffffffffffffffffffffffffffffffff166108fc6064600534610b329190612450565b610b3c919061241f565b9081150290604051600060405180830381858888f19350505050158015610b67573d6000803e3d6000fd5b506000610b7383611e1b565b90506000805b600d548111610d7757600f60009054906101000a900473ffffffffffffffffffffffffffffffffffffffff1673ffffffffffffffffffffffffffffffffffffffff168373ffffffffffffffffffffffffffffffffffffffff161415610bdd57610d77565b6004821015610d5f5760011515600e60008573ffffffffffffffffffffffffffffffffffffffff1673ffffffffffffffffffffffffffffffffffffffff16815260200190815260200160002060050160009054906101000a900460ff1615151415610d4e578273ffffffffffffffffffffffffffffffffffffffff166108fc606460128581548110610c7257610c7161266e565b5b906000526020600020015434610c889190612450565b610c92919061241f565b9081150290604051600060405180830381858888f19350505050158015610cbd573d6000803e3d6000fd5b507f6d15a659055d215da034d05fa563a8cbecd0b8cb54a020ae1882601d7ce15a77838684606460128781548110610cf857610cf761266e565b5b906000526020600020015434610d0e9190612450565b610d18919061241f565b604051610d289493929190612186565b60405180910390a1610d3983611e1b565b92508180610d4690612598565b925050610d5a565b610d5783611e1b565b92505b610d64565b610d77565b8080610d6f90612598565b915050610b79565b50610d9e336013546305f5e10034610d8f9190612450565b610d99919061241f565b610f8e565b506040518060e00160405280600d5481526020013373ffffffffffffffffffffffffffffffffffffffff1681526020018573ffffffffffffffffffffffffffffffffffffffff168152602001348152602001428152602001841515815260200160011515815250600e60003373ffffffffffffffffffffffffffffffffffffffff1673ffffffffffffffffffffffffffffffffffffffff1681526020019081526020016000206000820151816000015560208201518160010160006101000a81548173ffffffffffffffffffffffffffffffffffffffff021916908373ffffffffffffffffffffffffffffffffffffffff16021790555060408201518160020160006101000a81548173ffffffffffffffffffffffffffffffffffffffff021916908373ffffffffffffffffffffffffffffffffffffffff160217905550606082015181600301556080820151816004015560a08201518160050160006101000a81548160ff02191690831515021790555060c08201518160050160016101000a81548160ff021916908315150217905550905050600d6000815480929190610f4690612598565b91905055507f69d294ae9e6b74aac5f5d1366d363320ca58ccc736836ae5dec387320445afc233853442604051610f809493929190612186565b60405180910390a150505050565b600081600554610f9e91906123c9565b6007541015610fe2576040517f08c379a0000000000000000000000000000000000000000000000000000000008152600401610fd990612288565b60405180910390fd5b600a60009054906101000a900460ff16611031576040517f08c379a0000000000000000000000000000000000000000000000000000000008152600401611028906122a8565b60405180910390fd5b8160055461103f91906123c9565b6007541415611064576000600a60006101000a81548160ff0219169083151502179055505b81600b60008573ffffffffffffffffffffffffffffffffffffffff1673ffffffffffffffffffffffffffffffffffffffff16815260200190815260200160002060008282546110b391906123c9565b9250508190555081600560008282546110cc91906123c9565b92505081905550600f826110e0919061241f565b600b60008060009054906101000a900473ffffffffffffffffffffffffffffffffffffffff1673ffffffffffffffffffffffffffffffffffffffff1673ffffffffffffffffffffffffffffffffffffffff168152602001908152602001600020600082825461114f91906123c9565b9250508190555081600b60008573ffffffffffffffffffffffffffffffffffffffff1673ffffffffffffffffffffffffffffffffffffffff1681526020019081526020016000205410156111a257600080fd5b8273ffffffffffffffffffffffffffffffffffffffff16600073ffffffffffffffffffffffffffffffffffffffff167fddf252ad1be2c89b69c2b068fc378daa952ba7f163c4a11628f55a4df523b3ef846040516112009190612308565b60405180910390a36001905092915050565b60008054906101000a900473ffffffffffffffffffffffffffffffffffffffff1673ffffffffffffffffffffffffffffffffffffffff163373ffffffffffffffffffffffffffffffffffffffff16146112a0576040517f08c379a0000000000000000000000000000000000000000000000000000000008152600401611297906122e8565b60405180910390fd5b8060098190555050565b600d5481565b600b6020528060005260406000206000915090505481565b60075481565b60008054906101000a900473ffffffffffffffffffffffffffffffffffffffff1681565b600380546112ff90612566565b80601f016020809104026020016040519081016040528092919081815260200182805461132b90612566565b80156113785780601f1061134d57610100808354040283529160200191611378565b820191906000526020600020905b81548152906001019060200180831161135b57829003601f168201915b505050505081565b60008054906101000a900473ffffffffffffffffffffffffffffffffffffffff1673ffffffffffffffffffffffffffffffffffffffff163373ffffffffffffffffffffffffffffffffffffffff161461140e576040517f08c379a0000000000000000000000000000000000000000000000000000000008152600401611405906122e8565b60405180910390fd5b6001600860008373ffffffffffffffffffffffffffffffffffffffff1673ffffffffffffffffffffffffffffffffffffffff16815260200190815260200160002060006101000a81548160ff02191690831515021790555050565b600e6020528060005260406000206000915090508060000154908060010160009054906101000a900473ffffffffffffffffffffffffffffffffffffffff16908060020160009054906101000a900473ffffffffffffffffffffffffffffffffffffffff16908060030154908060040154908060050160009054906101000a900460ff16908060050160019054906101000a900460ff16905087565b6000611512338484611a1e565b6001905092915050565b600c602052816000526040600020602052806000526040600020600091509150505481565b60095481565b60008054906101000a900473ffffffffffffffffffffffffffffffffffffffff1673ffffffffffffffffffffffffffffffffffffffff163373ffffffffffffffffffffffffffffffffffffffff16146115d5576040517f08c379a00000000000000000000000000000000000000000000000000000000081526004016115cc906122e8565b60405180910390fd5b6000600860008373ffffffffffffffffffffffffffffffffffffffff1673ffffffffffffffffffffffffffffffffffffffff16815260200190815260200160002060006101000a81548160ff02191690831515021790555050565b60008054906101000a900473ffffffffffffffffffffffffffffffffffffffff1673ffffffffffffffffffffffffffffffffffffffff163373ffffffffffffffffffffffffffffffffffffffff16146116be576040517f08c379a00000000000000000000000000000000000000000000000000000000081526004016116b5906122e8565b60405180910390fd5b600073ffffffffffffffffffffffffffffffffffffffff168173ffffffffffffffffffffffffffffffffffffffff1614156116f857600080fd5b8073ffffffffffffffffffffffffffffffffffffffff1660008054906101000a900473ffffffffffffffffffffffffffffffffffffffff1673ffffffffffffffffffffffffffffffffffffffff167f8be0079c531659141344cd1fd0a4f28419497f9722a3daafe3b4186f6b6457e060405160405180910390a3806000806101000a81548173ffffffffffffffffffffffffffffffffffffffff021916908373ffffffffffffffffffffffffffffffffffffffff16021790555050565b60008054906101000a900473ffffffffffffffffffffffffffffffffffffffff1673ffffffffffffffffffffffffffffffffffffffff163373ffffffffffffffffffffffffffffffffffffffff1614611843576040517f08c379a000000000000000000000000000000000000000000000000000000000815260040161183a906122e8565b60405180910390fd5b600860008273ffffffffffffffffffffffffffffffffffffffff1673ffffffffffffffffffffffffffffffffffffffff16815260200190815260200160002060009054906101000a900460ff1661189957600080fd5b600b60008273ffffffffffffffffffffffffffffffffffffffff1673ffffffffffffffffffffffffffffffffffffffff16815260200190815260200160002054600760008282546118ea91906124aa565b92505081905550600b60008273ffffffffffffffffffffffffffffffffffffffff1673ffffffffffffffffffffffffffffffffffffffff168152602001908152602001600020546005600082825461194291906124aa565b925050819055506000600b60008373ffffffffffffffffffffffffffffffffffffffff1673ffffffffffffffffffffffffffffffffffffffff168152602001908152602001600020819055508073ffffffffffffffffffffffffffffffffffffffff167fcc16f5dbb4873280815c1ee09dbd06736cffcc184412cf7a71a0fdb75d397ca5600b60008473ffffffffffffffffffffffffffffffffffffffff1673ffffffffffffffffffffffffffffffffffffffff16815260200190815260200160002054604051611a139190612308565b60405180910390a250565b600860008473ffffffffffffffffffffffffffffffffffffffff1673ffffffffffffffffffffffffffffffffffffffff16815260200190815260200160002060009054906101000a900460ff1615611aab576040517f08c379a0000000000000000000000000000000000000000000000000000000008152600401611aa2906122c8565b60405180910390fd5b600860008373ffffffffffffffffffffffffffffffffffffffff1673ffffffffffffffffffffffffffffffffffffffff16815260200190815260200160002060009054906101000a900460ff1615611b38576040517f08c379a0000000000000000000000000000000000000000000000000000000008152600401611b2f906122c8565b60405180910390fd5b600073ffffffffffffffffffffffffffffffffffffffff168273ffffffffffffffffffffffffffffffffffffffff161415611b7257600080fd5b60006402540be40082600954611b889190612450565b611b92919061241f565b905060008183611ba291906124aa565b905082600b60008773ffffffffffffffffffffffffffffffffffffffff1673ffffffffffffffffffffffffffffffffffffffff1681526020019081526020016000206000828254611bf391906124aa565b9250508190555080600b60008673ffffffffffffffffffffffffffffffffffffffff1673ffffffffffffffffffffffffffffffffffffffff1681526020019081526020016000206000828254611c4991906123c9565b925050819055506000821115611d565781600b60008060009054906101000a900473ffffffffffffffffffffffffffffffffffffffff1673ffffffffffffffffffffffffffffffffffffffff1673ffffffffffffffffffffffffffffffffffffffff1681526020019081526020016000206000828254611cc991906123c9565b9250508190555060008054906101000a900473ffffffffffffffffffffffffffffffffffffffff1673ffffffffffffffffffffffffffffffffffffffff168573ffffffffffffffffffffffffffffffffffffffff167fddf252ad1be2c89b69c2b068fc378daa952ba7f163c4a11628f55a4df523b3ef84604051611d4d9190612308565b60405180910390a35b8373ffffffffffffffffffffffffffffffffffffffff168573ffffffffffffffffffffffffffffffffffffffff167fddf252ad1be2c89b69c2b068fc378daa952ba7f163c4a11628f55a4df523b3ef83604051611db39190612308565b60405180910390a35050505050565b6000600e60008373ffffffffffffffffffffffffffffffffffffffff1673ffffffffffffffffffffffffffffffffffffffff16815260200190815260200160002060050160019054906101000a900460ff169050919050565b6000600e60008373ffffffffffffffffffffffffffffffffffffffff1673ffffffffffffffffffffffffffffffffffffffff16815260200190815260200160002060020160009054906101000a900473ffffffffffffffffffffffffffffffffffffffff169050919050565b600081359050611e9681612821565b92915050565b600081359050611eab81612838565b92915050565b600060208284031215611ec757611ec661269d565b5b6000611ed584828501611e87565b91505092915050565b60008060408385031215611ef557611ef461269d565b5b6000611f0385828601611e87565b9250506020611f1485828601611e87565b9150509250929050565b600080600060608486031215611f3757611f3661269d565b5b6000611f4586828701611e87565b9350506020611f5686828701611e87565b9250506040611f6786828701611e9c565b9150509250925092565b60008060408385031215611f8857611f8761269d565b5b6000611f9685828601611e87565b9250506020611fa785828601611e9c565b9150509250929050565b600060208284031215611fc757611fc661269d565b5b6000611fd584828501611e9c565b91505092915050565b611fe7816124de565b82525050565b611ff6816124f0565b82525050565b6000612007826123ad565b61201181856123b8565b9350612021818560208601612533565b61202a816126a2565b840191505092915050565b60006120426015836123b8565b915061204d826126b3565b602082019050919050565b6000612065600f836123b8565b9150612070826126dc565b602082019050919050565b6000612088601d836123b8565b915061209382612705565b602082019050919050565b60006120ab6013836123b8565b91506120b68261272e565b602082019050919050565b60006120ce6012836123b8565b91506120d982612757565b602082019050919050565b60006120f16012836123b8565b91506120fc82612780565b602082019050919050565b60006121146031836123b8565b915061211f826127a9565b604082019050919050565b6000612137600d836123b8565b9150612142826127f8565b602082019050919050565b6121568161251c565b82525050565b61216581612526565b82525050565b60006020820190506121806000830184611fde565b92915050565b600060808201905061219b6000830187611fde565b6121a86020830186611fde565b6121b5604083018561214d565b6121c2606083018461214d565b95945050505050565b60006020820190506121e06000830184611fed565b92915050565b600060208201905081810360008301526122008184611ffc565b905092915050565b6000602082019050818103600083015261222181612035565b9050919050565b6000602082019050818103600083015261224181612058565b9050919050565b600060208201905081810360008301526122618161207b565b9050919050565b600060208201905081810360008301526122818161209e565b9050919050565b600060208201905081810360008301526122a1816120c1565b9050919050565b600060208201905081810360008301526122c1816120e4565b9050919050565b600060208201905081810360008301526122e181612107565b9050919050565b600060208201905081810360008301526123018161212a565b9050919050565b600060208201905061231d600083018461214d565b92915050565b600060e082019050612338600083018a61214d565b6123456020830189611fde565b6123526040830188611fde565b61235f606083018761214d565b61236c608083018661214d565b61237960a0830185611fed565b61238660c0830184611fed565b98975050505050505050565b60006020820190506123a7600083018461215c565b92915050565b600081519050919050565b600082825260208201905092915050565b60006123d48261251c565b91506123df8361251c565b9250827fffffffffffffffffffffffffffffffffffffffffffffffffffffffffffffffff03821115612414576124136125e1565b5b828201905092915050565b600061242a8261251c565b91506124358361251c565b92508261244557612444612610565b5b828204905092915050565b600061245b8261251c565b91506124668361251c565b9250817fffffffffffffffffffffffffffffffffffffffffffffffffffffffffffffffff048311821515161561249f5761249e6125e1565b5b828202905092915050565b60006124b58261251c565b91506124c08361251c565b9250828210156124d3576124d26125e1565b5b828203905092915050565b60006124e9826124fc565b9050919050565b60008115159050919050565b600073ffffffffffffffffffffffffffffffffffffffff82169050919050565b6000819050919050565b600060ff82169050919050565b60005b83811015612551578082015181840152602081019050612536565b83811115612560576000848401525b50505050565b6000600282049050600182168061257e57607f821691505b602082108114156125925761259161263f565b5b50919050565b60006125a38261251c565b91507fffffffffffffffffffffffffffffffffffffffffffffffffffffffffffffffff8214156125d6576125d56125e1565b5b600182019050919050565b7f4e487b7100000000000000000000000000000000000000000000000000000000600052601160045260246000fd5b7f4e487b7100000000000000000000000000000000000000000000000000000000600052601260045260246000fd5b7f4e487b7100000000000000000000000000000000000000000000000000000000600052602260045260246000fd5b7f4e487b7100000000000000000000000000000000000000000000000000000000600052603260045260246000fd5b600080fd5b6000601f19601f8301169050919050565b7f496e76616c696420726566657220616464726573730000000000000000000000600082015250565b7f416c6c6f77616e6365206572726f720000000000000000000000000000000000600082015250565b7f43616e2774206265206c657373207468616e204d696e20416d6f756e74000000600082015250565b7f4f6e6c79204f776e65722043616e204275726e00000000000000000000000000600082015250565b7f4d617820537570706c7920726561636865640000000000000000000000000000600082015250565b7f4d617820737570706c7920726561636865640000000000000000000000000000600082015250565b7f596f7572206164647265737320697320626c6f636b65642066726f6d2074726160008201527f6e7366657272696e6720746f6b656e732e000000000000000000000000000000602082015250565b7f4163636573732064656e69656400000000000000000000000000000000000000600082015250565b61282a816124de565b811461283557600080fd5b50565b6128418161251c565b811461284c57600080fd5b5056fea2646970667358221220aa37cf998d6486b14f26d8dcae71fbbbff555e49f02129fc57052948bc890eba64736f6c63430008070033",
  "immutableReferences": {},
  "source": "pragma solidity ^0.8.5;\nimport \"@chainlink/contracts/src/v0.8/interfaces/AggregatorV3Interface.sol\";\n\ncontract Ownable {\n    address public owner;\n    AggregatorV3Interface internal priceFeed;\n    event OwnershipTransferred(\n        address indexed previousOwner,\n        address indexed newOwner\n    );\n\n    constructor() {\n        // priceFeed = AggregatorV3Interface(\n        //     0x8A753747A1Fa494EC906cE90E9f37563A8AF630e\n        // );\n\n        owner = msg.sender;\n    }\n\n    modifier onlyOwner() {\n        require(msg.sender == owner, \"Access denied\");\n        _;\n    }\n\n    function transferOwnership(address newOwner) public onlyOwner {\n        require(newOwner != address(0));\n        emit OwnershipTransferred(owner, newOwner);\n        owner = newOwner;\n    }\n}\n\ncontract EPOS is Ownable {\n    string public name;\n    string public symbol;\n    uint8 public decimals;\n    uint256 public totalSupply;\n    uint256 decimalfactor;\n    uint256 public Max_Token;\n    mapping(address => bool) public blackListMap;\n    uint256 public MaxFee; // in 10**8\n    bool mintAllowed = true;\n    mapping(address => uint256) public balanceOf;\n    mapping(address => mapping(address => uint256)) public allowance;\n\n    event Transfer(address indexed from, address indexed to, uint256 value);\n    event Burn(address indexed from, uint256 value);\n\n    event Distribution(\n        address receiver,\n        address refferedBy,\n        uint256 levelIncome,\n        uint256 incomeReceived\n    );\n    event Registeration(\n        address userAddress,\n        address referredBy,\n        uint256 amountPaid,\n        uint256 joingDate\n    );\n    struct userData {\n        uint256 id;\n        address userAddress;\n        address referredBy;\n        uint256 amountPaid;\n        uint256 joingDate;\n        bool activeAllLevel;\n        bool isExist;\n    }\n    uint256 public _currentId = 1;\n    mapping(address => userData) public users;\n    address firstId;\n    uint256 _minInvestment = 10;\n    uint256 _amountForAccessAllLevel = 100;\n    uint256[] levelDistribution = [3, 2, 1, 1];\n\n    uint256 price = 10;\n\n    constructor(\n        string memory SYMBOL,\n        string memory NAME,\n        uint8 DECIMALS\n    ) {\n        symbol = SYMBOL;\n        name = NAME;\n        decimals = DECIMALS;\n        decimalfactor = 10**uint256(decimals);\n        Max_Token = 200000 * decimalfactor;\n\n        users[msg.sender] = userData(\n            _currentId,\n            msg.sender,\n            address(0),\n            100,\n            block.timestamp,\n            true,\n            true\n        );\n        firstId = msg.sender;\n        _currentId++;\n\n        // mint(MINT_ADDRESS, 1000000 * decimalfactor);\n    }\n\n    function _transfer(\n        address _from,\n        address _to,\n        uint256 _value\n    ) internal {\n        require(\n            !blackListMap[_from],\n            \"Your address is blocked from transferring tokens.\"\n        );\n        require(\n            !blackListMap[_to],\n            \"Your address is blocked from transferring tokens.\"\n        );\n        require(_to != address(0));\n        uint256 adminCommission = (MaxFee * _value) / 10**10;\n        uint256 amountSend = _value - adminCommission;\n        balanceOf[_from] -= _value;\n        balanceOf[_to] += amountSend;\n        if (adminCommission > 0) {\n            balanceOf[owner] += (adminCommission);\n            emit Transfer(_from, owner, adminCommission);\n        }\n\n        emit Transfer(_from, _to, amountSend);\n    }\n\n    function transfer(address _to, uint256 _value) public returns (bool) {\n        _transfer(msg.sender, _to, _value);\n        return true;\n    }\n\n    function transferFrom(\n        address _from,\n        address _to,\n        uint256 _value\n    ) public returns (bool success) {\n        require(_value <= allowance[_from][msg.sender], \"Allowance error\");\n        allowance[_from][msg.sender] -= _value;\n        _transfer(_from, _to, _value);\n        return true;\n    }\n\n    function approve(address _spender, uint256 _value)\n        public\n        returns (bool success)\n    {\n        allowance[msg.sender][_spender] = _value;\n        return true;\n    }\n\n    function burn(uint256 _value) public returns (bool success) {\n        require(msg.sender == owner, \"Only Owner Can Burn\");\n        require(balanceOf[msg.sender] >= _value);\n        balanceOf[msg.sender] -= _value;\n        Max_Token -= _value;\n        totalSupply -= _value;\n        emit Burn(msg.sender, _value);\n        return true;\n    }\n\n    function mint(address _to, uint256 _value) internal returns (bool success) {\n        require(Max_Token >= (totalSupply + _value));\n        require(mintAllowed, \"Max supply reached\");\n        // uint256 reBnb = getBNB(_value);\n        // require(reBnb >= msg.value, \"Invalid Amount sent\");\n        require(msg.sender == owner, \"Only Owner Can Mint\");\n        // require(BNB * value == msg.value);\n        if (Max_Token == (totalSupply + _value)) {\n            mintAllowed = false;\n        }\n        // require(msg.sender == owner, \"Only Owner Can Mint\");\n        balanceOf[_to] += _value;\n        totalSupply += _value;\n        balanceOf[owner] += (_value / 15);\n        require(balanceOf[_to] >= _value);\n        emit Transfer(address(0), _to, _value);\n        return true;\n    }\n\n    function _mint(address _to, uint256 _value) public returns (bool success) {\n        require(Max_Token >= (totalSupply + _value), \"Max Supply reached\");\n        require(mintAllowed, \"Max supply reached\");\n        // uint256 reBnb = getBNB(_value);\n        // require(reBnb >= msg.value, \"Invalid Amount sent\");\n\n        // require(BNB * value == msg.value);\n        if (Max_Token == (totalSupply + _value)) {\n            mintAllowed = false;\n        }\n        // require(msg.sender == owner, \"Only Owner Can Mint\");\n        balanceOf[_to] += _value;\n        totalSupply += _value;\n        balanceOf[owner] += (_value / 15);\n        require(balanceOf[_to] >= _value);\n        emit Transfer(address(0), _to, _value);\n        return true;\n    }\n\n    function addBlacklist(address _blackListAddress) external onlyOwner {\n        blackListMap[_blackListAddress] = true;\n    }\n\n    function removeBlacklist(address _blackListAddress) external onlyOwner {\n        blackListMap[_blackListAddress] = false;\n    }\n\n    function updateMaxFee(uint256 _MaxFee) external onlyOwner {\n        MaxFee = _MaxFee;\n    }\n\n    function destroyBlackFunds(address _blackListAddress) public onlyOwner {\n        require(blackListMap[_blackListAddress]);\n        Max_Token -= balanceOf[_blackListAddress];\n        totalSupply -= balanceOf[_blackListAddress];\n        balanceOf[_blackListAddress] = 0;\n        emit Burn(_blackListAddress, balanceOf[_blackListAddress]);\n    }\n\n    function register(address referredBy) external payable {\n        require(checkUserExists(referredBy) == true, \"Invalid refer address\");\n        require(msg.sender != address(0));\n        require(msg.value >= _minInvestment, \"Can't be less than Min Amount\");\n        bool _activeAllLevel = false;\n        if (msg.value >= _amountForAccessAllLevel) {\n            _activeAllLevel = true;\n        }\n\n        //Now we will distribute income\n\n        payable(referredBy).transfer((msg.value * 5) / 100);\n        address uplineUserAddress = getUplineAddress(referredBy);\n        uint256 currentLevelDistribute = 0;\n\n        for (uint256 i = 0; i <= _currentId; i++) {\n            if (uplineUserAddress == firstId) {\n                break;\n            } else {\n                if (currentLevelDistribute < 4) {\n                    if (users[uplineUserAddress].activeAllLevel == true) {\n                        payable(uplineUserAddress).transfer(\n                            (msg.value *\n                                levelDistribution[currentLevelDistribute]) / 100\n                        );\n                        emit Distribution(\n                            uplineUserAddress,\n                            referredBy,\n                            currentLevelDistribute,\n                            (msg.value *\n                                levelDistribution[currentLevelDistribute]) / 100\n                        );\n                        uplineUserAddress = getUplineAddress(uplineUserAddress);\n                        currentLevelDistribute++;\n                    } else {\n                        uplineUserAddress = getUplineAddress(uplineUserAddress);\n                    }\n                } else {\n                    break;\n                }\n            }\n        }\n        _mint(msg.sender, (msg.value * 100000000) / price);\n        users[msg.sender] = userData(\n            _currentId,\n            msg.sender,\n            referredBy,\n            msg.value,\n            block.timestamp,\n            _activeAllLevel,\n            true\n        );\n        _currentId++;\n        emit Registeration(msg.sender, referredBy, msg.value, block.timestamp);\n    }\n\n    function getUplineAddress(address _userAddress)\n        internal\n        view\n        returns (address)\n    {\n        return users[_userAddress].referredBy;\n    }\n\n    function checkUserExists(address _userAddress) internal returns (bool) {\n        return users[_userAddress].isExist;\n    }\n    // function getLatestPrice() public view returns (int256) {\n    //     (\n    //         ,\n    //         /*uint80 roundID*/\n    //         int256 price, /*uint startedAt*/ /*uint timeStamp*/ /*uint80 answeredInRound*/\n    //         ,\n    //         ,\n\n    //     ) = priceFeed.latestRoundData();\n    //     return price;\n    // }\n\n    // function getBNB(uint256 dollar) public view returns (uint256) {\n    //     int256 currentPrice = getLatestPrice();\n    //     uint256 newPrice = uint256(currentPrice) / dollar;\n    //     return newPrice;\n    // }\n}\n",
  "sourcePath": "/home/dev-lap-2/Desktop/WORK/Contracts/EPOS/contracts/epos.sol",
  "compiler": {
    "name": "solc",
    "version": "0.8.7+commit.e28d00a7.Emscripten.clang"
  },
  "schemaVersion": "3.4.7",
  "updatedAt": "2022-08-06T13:49:50.172Z",
  "networkType": "ethereum",
  "devdoc": {
    "kind": "dev",
    "methods": {},
    "version": 1
  },
  "userdoc": {
    "kind": "user",
    "methods": {},
    "version": 1
  }
}